:10000000FFEF05F00000000000EF00F0000000002E
:0A0010000000000000000000F3D71C
:10001C000F0E0C6E470E0D6E0D2EFED70C2EFCD750
:06002C00000000001200BC
:0A003200210E0D6E0D2EFED71200F8
:06003C00000000001200AC
:100042000B840BAE2CEF00F0010E036E026A016A04
:0A005200006A0A360232FF0E1200A7
:08005C000AAE029E000E120024
:1000640050BE02D08A9601D08A8650BC02D08A94AF
:1000740001D08A8450BA02D08A9201D08A8250B8C0
:1000840002D08A9001D08A802DB002D08A8801D013
:100094008A988A8AD1DF8A9A50B602D08A9601D089
:1000A4008A8650B402D08A9401D08A8450B202D095
:1000B4008A9201D08A8250B002D08A9001D08A807C
:1000C4002DB002D08A8801D08A988A8AB5DF8A9AAC
:0C00D4002DA002D0A1DF01D0AADF120095
:0E00E000026A016A006A086A036A000E1200D2
:1000EE000B820BAE81EF00F00368026801680068B6
:0800FE000A360232FF0E120067
:100106000A6A0350D8A40A800750D8A40A820A5063
:10011600D8B4E6EF00F0030AD8B49FEF00F00AB0B7
:100126009AEF00F006AEE4EF00F0E2EF00F002AE68
:10013600E2EF00F0E4EF00F00250800B0A6E029E40
:100146000650800B069E0A18D8B4B0EF00F00A508D
:10015600D8B4E2EF00F0E4EF00F00750035CD8B447
:10016600BAEF00F0D8A0D6EF00F0DCEF00F00650B2
:10017600025CD8B4C4EF00F0D8A0D6EF00F0DCEFF4
:1001860000F00550015CD8B4CEEF00F0D8A0D6EF51
:1001960000F0DCEF00F00450005CD8B4E6EF00F0AD
:1001A600D8B0DCEF00F00A52D8B4E4EF00F0E2EF8A
:1001B60000F00A52D8B4E2EF00F0E4EF00F0D88085
:0E01C6001200D8901200D880D88412001200C7
:0C01D4000E0E0D6E0D2EFED70000120066
:1001E0004CC004F04DC005F004C002F005C003F09F
:1001F000044A052A4EC000F04FC001F04E4A4F2A73
:1002000000C0E9FF01C0EAFF02C0E1FF03C0E2FF56
:10021000EECFE6FF02C0E9FF03C0EAFFEE5201E0C5
:0C022000E3D74CC000F04DC001F012000C
:08022C000B6A0B86FF0E1200A5
:100234000D6A086A0050D8B4000C04180A6E0ABE8D
:100244000D1E0B6A04AE02D0041E042A00AE02D0B6
:10025400001E002A005004100A6E0ABE1FD004506B
:10026400085E003600340836045008260036060EB0
:100274000C6E00340836045000B0085E00A0082656
:1002840000360C2EF6D700A008260BB015D00DAE04
:10029400000C001E002A081E082A000C04AE09D017
:1002A40000BE04D00050086E006AF1D7006A002A2C
:1002B400000C001E0B2AD3D7082A0450085CD8A4CB
:0E02C400E6D7086A002A00AEE2D7FF0C12004F
:1002D200086A096A000E07620364EEEF01F0025039
:1002E20006180A6E075003267E0ED8A07FEF01F093
:1002F200035ED8B0F2EF01F083EF01F0035ED8A005
:10030200F6EF01F0028E068E02C00EF001C00BF075
:1003120000C00DF000500402F4CF0CF001500502B1
:10032200F4CF00F0F3CF08F00402F3500C26F4509F
:100332000822000E00220D500502F3500C26F45044
:100342000822000E002202500402F3500826F45044
:10035200002202500502016A000E0122F35000261B
:10036200F45001220D500602F3500826F4500022E8
:10037200026A000E012202220B500602F3500026EE
:10038200F4500122000E02220E500602F350012602
:10039200F450022202BED6EF01F0083600360136D2
:1003A20002360306D8B4F6EF01F0E9EF01F0D88087
:1003B200800E08640030000E002201220222D8A022
:1003C200E9EF01F0023201320032034AF2EF01F0AA
:1003D2000AAE029E000EF8EF01F0010E80DEF8EF89
:1003E20001F0020E83DEF8EF01F0040E29DE1200A6
:0C03F2002D904CC050F035DE2D80120024
:1003FE000C6A0E6A0250D8A418EF02F001C002F087
:10040E0000C001F0006A0E860250D8A418EF02F068
:10041E0001C002F0016A0E960E880250D8B42AEF7F
:10042E0002F00E50035ED8A4D8A02FEF02F0D890A1
:10043E0002BE34EF02F0003601360236032E1FEFF5
:10044E0002F02FEF02F0010E0C6E43DE37EF02F0DA
:10045E00020E0C6EEFDD37EF02F0040E0C6EF7DDC0
:02046E0012007A
:100470000900F5CFE6FF0006FBE10106F9E11200F5
:10048000939A939893909392939493968A9A8A9836
:100490008A968A948A928A90C1DDC0DDBFDD8A8205
:1004A0008A808A8ACBDD8A9AB9DD8A8AC7DD8A9AF0
:1004B000B5DD8A8AC3DD8A9AB1DD8A908A8ABEDD7B
:1004C0008A9AACDD8A8ABADD8A9A8A928A868A8A70
:1004D000B5DD8A9AA3DD8A968A808A8AAFDD8A9AF8
:1004E0008A908A8AABDD8A9A99DD8A8AA7DD8A9A00
:1004F0008A808A8AA3DD8A9A91DD8A908A8A9EDD23
:100500008A9A8A868A848A828A808A8A97DD8A9AE7
:0605100085DD2D801200C4
:10051600A60E296E0B0E2A6E3E0E2B6E000E2C6E4C
:10052600C26A151C006E0050C116070EC012C08E9E
:04053600C28012006D
:10053A000FD0800E3E6E19D0C00E3E6E16D0940EAD
:10054A003E6E13D0D40E3E6E10D0800E3E6E0DD08D
:10055A003E50010AEEE03E50020AEEE03E50030A27
:10056A00EEE03E50040AEEE0F0D73F04006E3E5043
:10057A00002600C03EF000C050F06FDD2D90426AA8
:10058A0042504024E96E000E4120EA6EEE520BE022
:10059A0042504024E96E000E4120EA6EEECF4CF044
:0A05AA0023DF422AEDD72D80120056
:1005B4004A6A4B6A3EC046F03FC047F040C048F02C
:1005C40041C049F04950FF0A08E14850FF0A05E1DB
:1005D4004750FF0A02E14650FF0A0CE142C04CF0CA
:1005E40043C04DF0230E4E6E000E4F6EF7DD030E2A
:1005F400006EE9D1010E446E48AE0ED0800E48184C
:10060400006E00C048F0442A42C0E1FF43C0E2FF4C
:100614002D0EE66E424A432A000E006E491808E188
:100624000050481805E10050471802E14650000AFE
:100634000BE142C04CF043C04DF0270E4E6E000E4D
:100644004F6ECCDD006ABFD14950FF0A08E1485023
:10065400000A05E14750000A02E14650000A0CE195
:1006640042C04CF043C04DF01F0E4E6E000E4F6E54
:10067400B5DD44C000F0A7D1000E046E000E056E77
:10068400000E066E7F0E076E46C000F047C001F0F4
:1006940048C002F049C003F034DD010ED8B0000EAA
:1006A400006E00521BE046C000F047C001F048C095
:1006B40002F049C003F0000E046E000E056E200E19
:1006C400066E820E076E03DE00C046F001C047F0DE
:1006D40002C048F003C049F04B06CED7000E046EAA
:1006E400000E056E200E066E820E076E46C000F0E8
:1006F40047C001F048C002F049C003F002DD000E1B
:10070400D8B0010E006E00521BE046C000F047C096
:1007140001F048C002F049C003F0CD0E046ECC0EC7
:10072400056E4C0E066E7B0E076ED1DD00C046F0E2
:1007340001C047F002C048F003C049F04B2ACED7AD
:10074400FF0E4614086EFF0E4714096E7F0E481400
:100754000A6E000E49140B6E08C004F009C005F0BF
:100764000AC006F00BC007F00436049005360636BE
:100774000736000E4614006E000E4714016E000E7C
:100784004814026EFF0E4914036E00C046F001C007
:1007940047F002C048F003C049F004504610006E10
:1007A40005504710016E06504810026E075049105C
:1007B400036E00C046F001C047F002C048F003C019
:1007C40049F07F0E495C006E00C045F0010E496E91
:1007D40000C004F046C000F047C001F048C002F079
:1007E40049C003F0045007E0003600900136023699
:1007F4000336FF0FF8D700C046F001C047F002C02F
:1008040048F003C049F042C0E1FF43C0E2FF495051
:10081400300FE66E424A432A800E4B18006E800E5B
:10082400010A005C08E3800E060A006E800E4B1875
:10083400005C01E30AD042C0E1FF43C0E2FF2E0E98
:10084400E66E424A432A010E4A6E060E456E455034
:10085400000A54E0496A46C000F047C001F048C0AD
:1008640002F049C003F00036009001360236033628
:1008740000360090013602360336465000264750B3
:100884000122485002224950032200C046F001C010
:1008940047F002C048F003C049F046C000F047C02A
:1008A40001F048C002F049C003F000360090013660
:1008B4000236033600C046F001C047F002C048F0DB
:1008C40003C049F042C0E1FF43C0E2FF4950300F8A
:1008D400E66E424A432A4A50000A0EE14B064B5048
:1008E400000A0AE142C0E1FF43C0E2FF2E0EE66EB9
:1008F400424A432A010E4A6E4506A9D7FF0E4224F6
:10090400E96EFF0E4320EA6EEE50300A05E1010E57
:10091400425E000E435AF2D7FF0E4224E96EFF0EE8
:100924004320EA6EEE502E0A04E1010E425E000EF0
:10093400435A4B50000A41E042C0E1FF43C0E2FF8A
:10094400650EE66E424A432A800E4B18006E800EF6
:10095400000A005C0BE242C0E1FF43C0E2FF2D0E3F
:10096400E66E424A432A4B5000084B6E4BC045F09A
:10097400800E090A006E800E4B18005C0EE20A0E0F
:10098400046E45C000F054DC42C0E1FF43C0E2FF06
:100994000050300FE66E424A432A0A0E046E45C0E8
:1009A40000F046DC08C000F042C0E1FF43C0E2FFB3
:1009B4000050300FE66E424A432A42C0E1FF43C072
:0809C400E2FFE66A006A12007E
:1009CC000FD0800E3E6E19D0C00E3E6E16D0940E17
:1009DC003E6E13D0D40E3E6E10D0800E3E6E0DD0F7
:1009EC003E50010AEEE03E50020AEEE03E50030A91
:1009FC00EEE03E50040AEEE0F0D73F04006E3E50AD
:100A0C00002600C03EF02D8000C050F032EC00F00B
:0E0A1C002D9040C050F032EC00F02D80120002
:100A2A000450000A12E10550000A0FE10650000ABC
:100A3A000CE10750000A09E1FF0E006EFF0E016E7D
:100A4A007F0E026EFF0E036EA8D0086A096A07506D
:100A5A00D8B4C0EF05F00350D8B4C5EF05F0025082
:100A6A0006180A6E028E068E0E6A02C008F001C0CF
:100A7A000CF000C00DF004500D5E0550D8A0053CE6
:100A8A000C5E0650D8A0063C085E086A0C6A0D6A1D
:100A9A00D8A057EF05F0D89002320132003208325E
:100AAA00010E0E6E0750035ED8A064EF05F07E0EAD
:100ABA000E240326D8B0CAEF05F06AEF05F07E0EC1
:100ACA000E240326D8A0CFEF05F0180E0B6E0D36B4
:100ADA000C3608360036013602360E360450005EF1
:100AEA000550D8A0053C015E0650D8A0063C025E1F
:100AFA0006340E120EA085EF05F00D8090EF05F07A
:100B0A00045000260550D8B0053C01260650D8B03E
:100B1A00062802260D900B2E6CEF05F0B6EF05F0B5
:100B2A00D8900036013602360E360450005E055063
:100B3A00D8A0053C015E0650D8A0063C025E0634E9
:100B4A000E10010B0D26D8B00C2AD8B4082AD8A446
:100B5A00B6EF05F008320C320D32032AD8B4CAEFC8
:100B6A0005F00AAE089E0850026E0C50016E0D5038
:100B7A00006ED2EF05F0010E16EC01F0D2EF05F08F
:100B8A00020E70EC00F0D2EF05F0040E77EC00F0E4
:0C0B9A00D2EF05F0080E21EC00F0120074
:100BA600830EC2163EC000F000360090003600905C
:100BB6000050C212EAEC00F0C282C2A201D0FDD7F8
:100BC600C4CF01F0006AC3500012000E01121200D9
:100BD6000050086E0150006E016A026A036A0B6AD1
:100BE6000C6A960E036E0A6A00C001F008C000F097
:080BF600086A026A01DC12002A
:100BFE0077EC06F00E0EC16E87DC3BDC010E506EFC
:100C0E0032EC00F00C0E506E32EC00F0010E3E6E27
:100C1E00010E3F6E160E406E000E416E87DC3E6A70
:100C2E00BBDFD2DF000E046E000E056E200E066EC8
:100C3E00810E076E69EC01F0000E046EC00E056E9B
:100C4E007F0E066E880E076EE9DE000E046E000E35
:100C5E00056E480E066E850E076E69EC01F000C03B
:100C6E003EF001C03FF002C040F003C041F02E0E36
:100C7E00426E000E436E97DC336A010E3E6E060E18
:100C8E003F6E2E0E406E000E416E50DC010E3E6E1B
:100C9E000C0E3F6EDF0E406E92DE010E3E6E0D0E9E
:100CAE003F6E1D0E406E000E416E40DC060E0B6E4A
:100CBE00130E0C6EAD0E0D6E0D2EFED70C2EFCD738
:0C0CCE000B2EFAD700000000AAD7FFD7B9
:100CEE0010EE15F0140E006E010E016EDA0EF66E99
:0E0CFE000C0EF76E000EF86E38EC02F01200CD
:010CDA0030E9
:070CDB002054656D703A0022
:020CE2004300CD
:040CE400494E46002F
:040CE8004E614E000B
:020CEC003000D6
:020000040030CA
:0E000000000C1F1EFF8381FF0FC00FE00F409A
:00000001FF
